{
  "_format": "hh-sol-artifact-1",
  "contractName": "TicketContract",
  "sourceName": "contracts/TicketContract.sol",
  "abi": [
    {
      "inputs": [],
      "stateMutability": "nonpayable",
      "type": "constructor"
    },
    {
      "inputs": [
        {
          "internalType": "address",
          "name": "sender",
          "type": "address"
        },
        {
          "internalType": "uint256",
          "name": "tokenId",
          "type": "uint256"
        },
        {
          "internalType": "address",
          "name": "owner",
          "type": "address"
        }
      ],
      "name": "ERC721IncorrectOwner",
      "type": "error"
    },
    {
      "inputs": [
        {
          "internalType": "address",
          "name": "operator",
          "type": "address"
        },
        {
          "internalType": "uint256",
          "name": "tokenId",
          "type": "uint256"
        }
      ],
      "name": "ERC721InsufficientApproval",
      "type": "error"
    },
    {
      "inputs": [
        {
          "internalType": "address",
          "name": "approver",
          "type": "address"
        }
      ],
      "name": "ERC721InvalidApprover",
      "type": "error"
    },
    {
      "inputs": [
        {
          "internalType": "address",
          "name": "operator",
          "type": "address"
        }
      ],
      "name": "ERC721InvalidOperator",
      "type": "error"
    },
    {
      "inputs": [
        {
          "internalType": "address",
          "name": "owner",
          "type": "address"
        }
      ],
      "name": "ERC721InvalidOwner",
      "type": "error"
    },
    {
      "inputs": [
        {
          "internalType": "address",
          "name": "receiver",
          "type": "address"
        }
      ],
      "name": "ERC721InvalidReceiver",
      "type": "error"
    },
    {
      "inputs": [
        {
          "internalType": "address",
          "name": "sender",
          "type": "address"
        }
      ],
      "name": "ERC721InvalidSender",
      "type": "error"
    },
    {
      "inputs": [
        {
          "internalType": "uint256",
          "name": "tokenId",
          "type": "uint256"
        }
      ],
      "name": "ERC721NonexistentToken",
      "type": "error"
    },
    {
      "inputs": [
        {
          "internalType": "address",
          "name": "owner",
          "type": "address"
        }
      ],
      "name": "OwnableInvalidOwner",
      "type": "error"
    },
    {
      "inputs": [
        {
          "internalType": "address",
          "name": "account",
          "type": "address"
        }
      ],
      "name": "OwnableUnauthorizedAccount",
      "type": "error"
    },
    {
      "anonymous": false,
      "inputs": [
        {
          "indexed": true,
          "internalType": "address",
          "name": "owner",
          "type": "address"
        },
        {
          "indexed": true,
          "internalType": "address",
          "name": "approved",
          "type": "address"
        },
        {
          "indexed": true,
          "internalType": "uint256",
          "name": "tokenId",
          "type": "uint256"
        }
      ],
      "name": "Approval",
      "type": "event"
    },
    {
      "anonymous": false,
      "inputs": [
        {
          "indexed": true,
          "internalType": "address",
          "name": "owner",
          "type": "address"
        },
        {
          "indexed": true,
          "internalType": "address",
          "name": "operator",
          "type": "address"
        },
        {
          "indexed": false,
          "internalType": "bool",
          "name": "approved",
          "type": "bool"
        }
      ],
      "name": "ApprovalForAll",
      "type": "event"
    },
    {
      "anonymous": false,
      "inputs": [
        {
          "indexed": true,
          "internalType": "address",
          "name": "previousOwner",
          "type": "address"
        },
        {
          "indexed": true,
          "internalType": "address",
          "name": "newOwner",
          "type": "address"
        }
      ],
      "name": "OwnershipTransferred",
      "type": "event"
    },
    {
      "anonymous": false,
      "inputs": [
        {
          "indexed": false,
          "internalType": "uint256",
          "name": "tokenId",
          "type": "uint256"
        },
        {
          "indexed": false,
          "internalType": "uint256",
          "name": "eventId",
          "type": "uint256"
        },
        {
          "indexed": false,
          "internalType": "string",
          "name": "zone",
          "type": "string"
        },
        {
          "indexed": false,
          "internalType": "uint256",
          "name": "seatNumber",
          "type": "uint256"
        }
      ],
      "name": "TicketMinted",
      "type": "event"
    },
    {
      "anonymous": false,
      "inputs": [
        {
          "indexed": true,
          "internalType": "address",
          "name": "from",
          "type": "address"
        },
        {
          "indexed": true,
          "internalType": "address",
          "name": "to",
          "type": "address"
        },
        {
          "indexed": true,
          "internalType": "uint256",
          "name": "tokenId",
          "type": "uint256"
        }
      ],
      "name": "Transfer",
      "type": "event"
    },
    {
      "inputs": [
        {
          "internalType": "address",
          "name": "to",
          "type": "address"
        },
        {
          "internalType": "uint256",
          "name": "tokenId",
          "type": "uint256"
        }
      ],
      "name": "approve",
      "outputs": [],
      "stateMutability": "nonpayable",
      "type": "function"
    },
    {
      "inputs": [
        {
          "internalType": "address",
          "name": "owner",
          "type": "address"
        }
      ],
      "name": "balanceOf",
      "outputs": [
        {
          "internalType": "uint256",
          "name": "",
          "type": "uint256"
        }
      ],
      "stateMutability": "view",
      "type": "function"
    },
    {
      "inputs": [
        {
          "internalType": "uint256",
          "name": "tokenId",
          "type": "uint256"
        }
      ],
      "name": "getApproved",
      "outputs": [
        {
          "internalType": "address",
          "name": "",
          "type": "address"
        }
      ],
      "stateMutability": "view",
      "type": "function"
    },
    {
      "inputs": [
        {
          "internalType": "uint256",
          "name": "tokenId",
          "type": "uint256"
        }
      ],
      "name": "getTicketDetails",
      "outputs": [
        {
          "components": [
            {
              "internalType": "uint256",
              "name": "eventId",
              "type": "uint256"
            },
            {
              "internalType": "string",
              "name": "zone",
              "type": "string"
            },
            {
              "internalType": "uint256",
              "name": "seatNumber",
              "type": "uint256"
            },
            {
              "internalType": "uint256",
              "name": "price",
              "type": "uint256"
            },
            {
              "internalType": "bool",
              "name": "isUsed",
              "type": "bool"
            }
          ],
          "internalType": "struct TicketContract.Ticket",
          "name": "",
          "type": "tuple"
        }
      ],
      "stateMutability": "view",
      "type": "function"
    },
    {
      "inputs": [
        {
          "internalType": "address",
          "name": "owner",
          "type": "address"
        },
        {
          "internalType": "address",
          "name": "operator",
          "type": "address"
        }
      ],
      "name": "isApprovedForAll",
      "outputs": [
        {
          "internalType": "bool",
          "name": "",
          "type": "bool"
        }
      ],
      "stateMutability": "view",
      "type": "function"
    },
    {
      "inputs": [
        {
          "internalType": "address",
          "name": "to",
          "type": "address"
        },
        {
          "internalType": "uint256",
          "name": "eventId",
          "type": "uint256"
        },
        {
          "internalType": "string",
          "name": "zone",
          "type": "string"
        },
        {
          "internalType": "uint256",
          "name": "seatNumber",
          "type": "uint256"
        },
        {
          "internalType": "uint256",
          "name": "price",
          "type": "uint256"
        }
      ],
      "name": "mintTicket",
      "outputs": [
        {
          "internalType": "uint256",
          "name": "",
          "type": "uint256"
        }
      ],
      "stateMutability": "nonpayable",
      "type": "function"
    },
    {
      "inputs": [],
      "name": "name",
      "outputs": [
        {
          "internalType": "string",
          "name": "",
          "type": "string"
        }
      ],
      "stateMutability": "view",
      "type": "function"
    },
    {
      "inputs": [],
      "name": "owner",
      "outputs": [
        {
          "internalType": "address",
          "name": "",
          "type": "address"
        }
      ],
      "stateMutability": "view",
      "type": "function"
    },
    {
      "inputs": [
        {
          "internalType": "uint256",
          "name": "tokenId",
          "type": "uint256"
        }
      ],
      "name": "ownerOf",
      "outputs": [
        {
          "internalType": "address",
          "name": "",
          "type": "address"
        }
      ],
      "stateMutability": "view",
      "type": "function"
    },
    {
      "inputs": [],
      "name": "renounceOwnership",
      "outputs": [],
      "stateMutability": "nonpayable",
      "type": "function"
    },
    {
      "inputs": [
        {
          "internalType": "address",
          "name": "from",
          "type": "address"
        },
        {
          "internalType": "address",
          "name": "to",
          "type": "address"
        },
        {
          "internalType": "uint256",
          "name": "tokenId",
          "type": "uint256"
        }
      ],
      "name": "safeTransferFrom",
      "outputs": [],
      "stateMutability": "nonpayable",
      "type": "function"
    },
    {
      "inputs": [
        {
          "internalType": "address",
          "name": "from",
          "type": "address"
        },
        {
          "internalType": "address",
          "name": "to",
          "type": "address"
        },
        {
          "internalType": "uint256",
          "name": "tokenId",
          "type": "uint256"
        },
        {
          "internalType": "bytes",
          "name": "data",
          "type": "bytes"
        }
      ],
      "name": "safeTransferFrom",
      "outputs": [],
      "stateMutability": "nonpayable",
      "type": "function"
    },
    {
      "inputs": [
        {
          "internalType": "address",
          "name": "operator",
          "type": "address"
        },
        {
          "internalType": "bool",
          "name": "approved",
          "type": "bool"
        }
      ],
      "name": "setApprovalForAll",
      "outputs": [],
      "stateMutability": "nonpayable",
      "type": "function"
    },
    {
      "inputs": [
        {
          "internalType": "bytes4",
          "name": "interfaceId",
          "type": "bytes4"
        }
      ],
      "name": "supportsInterface",
      "outputs": [
        {
          "internalType": "bool",
          "name": "",
          "type": "bool"
        }
      ],
      "stateMutability": "view",
      "type": "function"
    },
    {
      "inputs": [],
      "name": "symbol",
      "outputs": [
        {
          "internalType": "string",
          "name": "",
          "type": "string"
        }
      ],
      "stateMutability": "view",
      "type": "function"
    },
    {
      "inputs": [
        {
          "internalType": "uint256",
          "name": "",
          "type": "uint256"
        }
      ],
      "name": "tickets",
      "outputs": [
        {
          "internalType": "uint256",
          "name": "eventId",
          "type": "uint256"
        },
        {
          "internalType": "string",
          "name": "zone",
          "type": "string"
        },
        {
          "internalType": "uint256",
          "name": "seatNumber",
          "type": "uint256"
        },
        {
          "internalType": "uint256",
          "name": "price",
          "type": "uint256"
        },
        {
          "internalType": "bool",
          "name": "isUsed",
          "type": "bool"
        }
      ],
      "stateMutability": "view",
      "type": "function"
    },
    {
      "inputs": [
        {
          "internalType": "uint256",
          "name": "tokenId",
          "type": "uint256"
        }
      ],
      "name": "tokenURI",
      "outputs": [
        {
          "internalType": "string",
          "name": "",
          "type": "string"
        }
      ],
      "stateMutability": "view",
      "type": "function"
    },
    {
      "inputs": [
        {
          "internalType": "address",
          "name": "from",
          "type": "address"
        },
        {
          "internalType": "address",
          "name": "to",
          "type": "address"
        },
        {
          "internalType": "uint256",
          "name": "tokenId",
          "type": "uint256"
        }
      ],
      "name": "transferFrom",
      "outputs": [],
      "stateMutability": "nonpayable",
      "type": "function"
    },
    {
      "inputs": [
        {
          "internalType": "address",
          "name": "newOwner",
          "type": "address"
        }
      ],
      "name": "transferOwnership",
      "outputs": [],
      "stateMutability": "nonpayable",
      "type": "function"
    },
    {
      "inputs": [
        {
          "internalType": "uint256",
          "name": "tokenId",
          "type": "uint256"
        }
      ],
      "name": "useTicket",
      "outputs": [],
      "stateMutability": "nonpayable",
      "type": "function"
    }
  ],
  "bytecode": "0x608060405234801561001057600080fd5b50336040518060400160405280600b81526020017f4576656e745469636b65740000000000000000000000000000000000000000008152506040518060400160405280600481526020017f54434b5400000000000000000000000000000000000000000000000000000000815250816000908161008d919061043d565b50806001908161009d919061043d565b505050600073ffffffffffffffffffffffffffffffffffffffff168173ffffffffffffffffffffffffffffffffffffffff16036101125760006040517f1e4fbdf70000000000000000000000000000000000000000000000000000000081526004016101099190610550565b60405180910390fd5b6101218161012760201b60201c565b5061056b565b6000600660009054906101000a900473ffffffffffffffffffffffffffffffffffffffff16905081600660006101000a81548173ffffffffffffffffffffffffffffffffffffffff021916908373ffffffffffffffffffffffffffffffffffffffff1602179055508173ffffffffffffffffffffffffffffffffffffffff168173ffffffffffffffffffffffffffffffffffffffff167f8be0079c531659141344cd1fd0a4f28419497f9722a3daafe3b4186f6b6457e060405160405180910390a35050565b600081519050919050565b7f4e487b7100000000000000000000000000000000000000000000000000000000600052604160045260246000fd5b7f4e487b7100000000000000000000000000000000000000000000000000000000600052602260045260246000fd5b6000600282049050600182168061026e57607f821691505b60208210810361028157610280610227565b5b50919050565b60008190508160005260206000209050919050565b60006020601f8301049050919050565b600082821b905092915050565b6000600883026102e97fffffffffffffffffffffffffffffffffffffffffffffffffffffffffffffffff826102ac565b6102f386836102ac565b95508019841693508086168417925050509392505050565b6000819050919050565b6000819050919050565b600061033a6103356103308461030b565b610315565b61030b565b9050919050565b6000819050919050565b6103548361031f565b61036861036082610341565b8484546102b9565b825550505050565b600090565b61037d610370565b61038881848461034b565b505050565b5b818110156103ac576103a1600082610375565b60018101905061038e565b5050565b601f8211156103f1576103c281610287565b6103cb8461029c565b810160208510156103da578190505b6103ee6103e68561029c565b83018261038d565b50505b505050565b600082821c905092915050565b6000610414600019846008026103f6565b1980831691505092915050565b600061042d8383610403565b9150826002028217905092915050565b610446826101ed565b67ffffffffffffffff81111561045f5761045e6101f8565b5b6104698254610256565b6104748282856103b0565b600060209050601f8311600181146104a75760008415610495578287015190505b61049f8582610421565b865550610507565b601f1984166104b586610287565b60005b828110156104dd578489015182556001820191506020850194506020810190506104b8565b868310156104fa57848901516104f6601f891682610403565b8355505b6001600288020188555050505b505050505050565b600073ffffffffffffffffffffffffffffffffffffffff82169050919050565b600061053a8261050f565b9050919050565b61054a8161052f565b82525050565b60006020820190506105656000830184610541565b92915050565b612afd8061057a6000396000f3fe608060405234801561001057600080fd5b506004361061012c5760003560e01c80636352211e116100ad578063a22cb46511610071578063a22cb46514610359578063b88d4fde14610375578063c87b56dd14610391578063e985e9c5146103c1578063f2fde38b146103f15761012c565b80636352211e146102b357806370a08231146102e3578063715018a6146103135780638da5cb5b1461031d57806395d89b411461033b5761012c565b806324c14160116100f457806324c14160146101e7578063266064481461021757806342842e0e1461023357806350b447121461024f5780635956b71e146102835761012c565b806301ffc9a71461013157806306fdde0314610161578063081812fc1461017f578063095ea7b3146101af57806323b872dd146101cb575b600080fd5b61014b60048036038101906101469190611d08565b61040d565b6040516101589190611d50565b60405180910390f35b6101696104ef565b6040516101769190611dfb565b60405180910390f35b61019960048036038101906101949190611e53565b610581565b6040516101a69190611ec1565b60405180910390f35b6101c960048036038101906101c49190611f08565b61059d565b005b6101e560048036038101906101e09190611f48565b6105b3565b005b61020160048036038101906101fc9190611e53565b6106b5565b60405161020e9190612079565b60405180910390f35b610231600480360381019061022c9190611e53565b6107ad565b005b61024d60048036038101906102489190611f48565b61084b565b005b61026960048036038101906102649190611e53565b61086b565b60405161027a9594939291906120aa565b60405180910390f35b61029d60048036038101906102989190612239565b610936565b6040516102aa91906122d0565b60405180910390f35b6102cd60048036038101906102c89190611e53565b610a47565b6040516102da9190611ec1565b60405180910390f35b6102fd60048036038101906102f891906122eb565b610a59565b60405161030a91906122d0565b60405180910390f35b61031b610b13565b005b610325610b27565b6040516103329190611ec1565b60405180910390f35b610343610b51565b6040516103509190611dfb565b60405180910390f35b610373600480360381019061036e9190612344565b610be3565b005b61038f600480360381019061038a9190612425565b610bf9565b005b6103ab60048036038101906103a69190611e53565b610c1e565b6040516103b89190611dfb565b60405180910390f35b6103db60048036038101906103d691906124a8565b610c87565b6040516103e89190611d50565b60405180910390f35b61040b600480360381019061040691906122eb565b610d1b565b005b60007f80ac58cd000000000000000000000000000000000000000000000000000000007bffffffffffffffffffffffffffffffffffffffffffffffffffffffff1916827bffffffffffffffffffffffffffffffffffffffffffffffffffffffff191614806104d857507f5b5e139f000000000000000000000000000000000000000000000000000000007bffffffffffffffffffffffffffffffffffffffffffffffffffffffff1916827bffffffffffffffffffffffffffffffffffffffffffffffffffffffff1916145b806104e857506104e782610da1565b5b9050919050565b6060600080546104fe90612517565b80601f016020809104026020016040519081016040528092919081815260200182805461052a90612517565b80156105775780601f1061054c57610100808354040283529160200191610577565b820191906000526020600020905b81548152906001019060200180831161055a57829003601f168201915b5050505050905090565b600061058c82610e0b565b5061059682610e93565b9050919050565b6105af82826105aa610ed0565b610ed8565b5050565b600073ffffffffffffffffffffffffffffffffffffffff168273ffffffffffffffffffffffffffffffffffffffff16036106255760006040517f64a0ae9200000000000000000000000000000000000000000000000000000000815260040161061c9190611ec1565b60405180910390fd5b60006106398383610634610ed0565b610eea565b90508373ffffffffffffffffffffffffffffffffffffffff168173ffffffffffffffffffffffffffffffffffffffff16146106af578382826040517f64283d7b0000000000000000000000000000000000000000000000000000000081526004016106a693929190612548565b60405180910390fd5b50505050565b6106bd611c6b565b600760008381526020019081526020016000206040518060a0016040529081600082015481526020016001820180546106f590612517565b80601f016020809104026020016040519081016040528092919081815260200182805461072190612517565b801561076e5780601f106107435761010080835404028352916020019161076e565b820191906000526020600020905b81548152906001019060200180831161075157829003601f168201915b5050505050815260200160028201548152602001600382015481526020016004820160009054906101000a900460ff1615151515815250509050919050565b6107b5611104565b6007600082815260200190815260200160002060040160009054906101000a900460ff1615610819576040517f08c379a0000000000000000000000000000000000000000000000000000000008152600401610810906125cb565b60405180910390fd5b60016007600083815260200190815260200160002060040160006101000a81548160ff02191690831515021790555050565b61086683838360405180602001604052806000815250610bf9565b505050565b600760205280600052604060002060009150905080600001549080600101805461089490612517565b80601f01602080910402602001604051908101604052809291908181526020018280546108c090612517565b801561090d5780601f106108e25761010080835404028352916020019161090d565b820191906000526020600020905b8154815290600101906020018083116108f057829003601f168201915b5050505050908060020154908060030154908060040160009054906101000a900460ff16905085565b6000610940611104565b600060085490506008600081548092919061095a9061261a565b91905055506040518060a0016040528087815260200186815260200185815260200184815260200160001515815250600760008381526020019081526020016000206000820151816000015560208201518160010190816109bb919061280e565b50604082015181600201556060820151816003015560808201518160040160006101000a81548160ff0219169083151502179055509050506109fd878261118b565b7f2be2f2f898c8505da562e6997c4016a28543c88dee8b9a896d971f221fc7672d81878787604051610a3294939291906128e0565b60405180910390a18091505095945050505050565b6000610a5282610e0b565b9050919050565b60008073ffffffffffffffffffffffffffffffffffffffff168273ffffffffffffffffffffffffffffffffffffffff1603610acc5760006040517f89c62b64000000000000000000000000000000000000000000000000000000008152600401610ac39190611ec1565b60405180910390fd5b600360008373ffffffffffffffffffffffffffffffffffffffff1673ffffffffffffffffffffffffffffffffffffffff168152602001908152602001600020549050919050565b610b1b611104565b610b2560006111a9565b565b6000600660009054906101000a900473ffffffffffffffffffffffffffffffffffffffff16905090565b606060018054610b6090612517565b80601f0160208091040260200160405190810160405280929190818152602001828054610b8c90612517565b8015610bd95780601f10610bae57610100808354040283529160200191610bd9565b820191906000526020600020905b815481529060010190602001808311610bbc57829003601f168201915b5050505050905090565b610bf5610bee610ed0565b838361126f565b5050565b610c048484846105b3565b610c18610c0f610ed0565b858585856113de565b50505050565b6060610c2982610e0b565b506000610c3461158f565b90506000815111610c545760405180602001604052806000815250610c7f565b80610c5e846115a6565b604051602001610c6f929190612968565b6040516020818303038152906040525b915050919050565b6000600560008473ffffffffffffffffffffffffffffffffffffffff1673ffffffffffffffffffffffffffffffffffffffff16815260200190815260200160002060008373ffffffffffffffffffffffffffffffffffffffff1673ffffffffffffffffffffffffffffffffffffffff16815260200190815260200160002060009054906101000a900460ff16905092915050565b610d23611104565b600073ffffffffffffffffffffffffffffffffffffffff168173ffffffffffffffffffffffffffffffffffffffff1603610d955760006040517f1e4fbdf7000000000000000000000000000000000000000000000000000000008152600401610d8c9190611ec1565b60405180910390fd5b610d9e816111a9565b50565b60007f01ffc9a7000000000000000000000000000000000000000000000000000000007bffffffffffffffffffffffffffffffffffffffffffffffffffffffff1916827bffffffffffffffffffffffffffffffffffffffffffffffffffffffff1916149050919050565b600080610e1783611674565b9050600073ffffffffffffffffffffffffffffffffffffffff168173ffffffffffffffffffffffffffffffffffffffff1603610e8a57826040517f7e273289000000000000000000000000000000000000000000000000000000008152600401610e8191906122d0565b60405180910390fd5b80915050919050565b60006004600083815260200190815260200160002060009054906101000a900473ffffffffffffffffffffffffffffffffffffffff169050919050565b600033905090565b610ee583838360016116b1565b505050565b600080610ef684611674565b9050600073ffffffffffffffffffffffffffffffffffffffff168373ffffffffffffffffffffffffffffffffffffffff1614610f3857610f37818486611876565b5b600073ffffffffffffffffffffffffffffffffffffffff168173ffffffffffffffffffffffffffffffffffffffff1614610fc957610f7a6000856000806116b1565b6001600360008373ffffffffffffffffffffffffffffffffffffffff1673ffffffffffffffffffffffffffffffffffffffff168152602001908152602001600020600082825403925050819055505b600073ffffffffffffffffffffffffffffffffffffffff168573ffffffffffffffffffffffffffffffffffffffff161461104c576001600360008773ffffffffffffffffffffffffffffffffffffffff1673ffffffffffffffffffffffffffffffffffffffff168152602001908152602001600020600082825401925050819055505b846002600086815260200190815260200160002060006101000a81548173ffffffffffffffffffffffffffffffffffffffff021916908373ffffffffffffffffffffffffffffffffffffffff160217905550838573ffffffffffffffffffffffffffffffffffffffff168273ffffffffffffffffffffffffffffffffffffffff167fddf252ad1be2c89b69c2b068fc378daa952ba7f163c4a11628f55a4df523b3ef60405160405180910390a4809150509392505050565b61110c610ed0565b73ffffffffffffffffffffffffffffffffffffffff1661112a610b27565b73ffffffffffffffffffffffffffffffffffffffff16146111895761114d610ed0565b6040517f118cdaa70000000000000000000000000000000000000000000000000000000081526004016111809190611ec1565b60405180910390fd5b565b6111a582826040518060200160405280600081525061193a565b5050565b6000600660009054906101000a900473ffffffffffffffffffffffffffffffffffffffff16905081600660006101000a81548173ffffffffffffffffffffffffffffffffffffffff021916908373ffffffffffffffffffffffffffffffffffffffff1602179055508173ffffffffffffffffffffffffffffffffffffffff168173ffffffffffffffffffffffffffffffffffffffff167f8be0079c531659141344cd1fd0a4f28419497f9722a3daafe3b4186f6b6457e060405160405180910390a35050565b600073ffffffffffffffffffffffffffffffffffffffff168273ffffffffffffffffffffffffffffffffffffffff16036112e057816040517f5b08ba180000000000000000000000000000000000000000000000000000000081526004016112d79190611ec1565b60405180910390fd5b80600560008573ffffffffffffffffffffffffffffffffffffffff1673ffffffffffffffffffffffffffffffffffffffff16815260200190815260200160002060008473ffffffffffffffffffffffffffffffffffffffff1673ffffffffffffffffffffffffffffffffffffffff16815260200190815260200160002060006101000a81548160ff0219169083151502179055508173ffffffffffffffffffffffffffffffffffffffff168373ffffffffffffffffffffffffffffffffffffffff167f17307eab39ab6107e8899845ad3d59bd9653f200f220920489ca2b5937696c31836040516113d19190611d50565b60405180910390a3505050565b60008373ffffffffffffffffffffffffffffffffffffffff163b1115611588578273ffffffffffffffffffffffffffffffffffffffff1663150b7a02868685856040518563ffffffff1660e01b815260040161143d94939291906129e1565b6020604051808303816000875af192505050801561147957506040513d601f19601f820116820180604052508101906114769190612a42565b60015b6114fd573d80600081146114a9576040519150601f19603f3d011682016040523d82523d6000602084013e6114ae565b606091505b5060008151036114f557836040517f64a0ae920000000000000000000000000000000000000000000000000000000081526004016114ec9190611ec1565b60405180910390fd5b805181602001fd5b63150b7a0260e01b7bffffffffffffffffffffffffffffffffffffffffffffffffffffffff1916817bffffffffffffffffffffffffffffffffffffffffffffffffffffffff19161461158657836040517f64a0ae9200000000000000000000000000000000000000000000000000000000815260040161157d9190611ec1565b60405180910390fd5b505b5050505050565b606060405180602001604052806000815250905090565b6060600060016115b58461195e565b01905060008167ffffffffffffffff8111156115d4576115d361210e565b5b6040519080825280601f01601f1916602001820160405280156116065781602001600182028036833780820191505090505b509050600082602001820190505b600115611669578080600190039150507f3031323334353637383961626364656600000000000000000000000000000000600a86061a8153600a858161165d5761165c612a6f565b5b04945060008503611614575b819350505050919050565b60006002600083815260200190815260200160002060009054906101000a900473ffffffffffffffffffffffffffffffffffffffff169050919050565b80806116ea5750600073ffffffffffffffffffffffffffffffffffffffff168273ffffffffffffffffffffffffffffffffffffffff1614155b1561181e5760006116fa84610e0b565b9050600073ffffffffffffffffffffffffffffffffffffffff168373ffffffffffffffffffffffffffffffffffffffff161415801561176557508273ffffffffffffffffffffffffffffffffffffffff168173ffffffffffffffffffffffffffffffffffffffff1614155b801561177857506117768184610c87565b155b156117ba57826040517fa9fbf51f0000000000000000000000000000000000000000000000000000000081526004016117b19190611ec1565b60405180910390fd5b811561181c57838573ffffffffffffffffffffffffffffffffffffffff168273ffffffffffffffffffffffffffffffffffffffff167f8c5be1e5ebec7d5bd14f71427d1e84f3dd0314c0f7b2291e5b200ac8c7c3b92560405160405180910390a45b505b836004600085815260200190815260200160002060006101000a81548173ffffffffffffffffffffffffffffffffffffffff021916908373ffffffffffffffffffffffffffffffffffffffff16021790555050505050565b611881838383611ab1565b61193557600073ffffffffffffffffffffffffffffffffffffffff168373ffffffffffffffffffffffffffffffffffffffff16036118f657806040517f7e2732890000000000000000000000000000000000000000000000000000000081526004016118ed91906122d0565b60405180910390fd5b81816040517f177e802f00000000000000000000000000000000000000000000000000000000815260040161192c929190612a9e565b60405180910390fd5b505050565b6119448383611b72565b61195961194f610ed0565b60008585856113de565b505050565b600080600090507a184f03e93ff9f4daa797ed6e38ed64bf6a1f01000000000000000083106119bc577a184f03e93ff9f4daa797ed6e38ed64bf6a1f01000000000000000083816119b2576119b1612a6f565b5b0492506040810190505b6d04ee2d6d415b85acef810000000083106119f9576d04ee2d6d415b85acef810000000083816119ef576119ee612a6f565b5b0492506020810190505b662386f26fc100008310611a2857662386f26fc100008381611a1e57611a1d612a6f565b5b0492506010810190505b6305f5e1008310611a51576305f5e1008381611a4757611a46612a6f565b5b0492506008810190505b6127108310611a76576127108381611a6c57611a6b612a6f565b5b0492506004810190505b60648310611a995760648381611a8f57611a8e612a6f565b5b0492506002810190505b600a8310611aa8576001810190505b80915050919050565b60008073ffffffffffffffffffffffffffffffffffffffff168373ffffffffffffffffffffffffffffffffffffffff1614158015611b6957508273ffffffffffffffffffffffffffffffffffffffff168473ffffffffffffffffffffffffffffffffffffffff161480611b2a5750611b298484610c87565b5b80611b6857508273ffffffffffffffffffffffffffffffffffffffff16611b5083610e93565b73ffffffffffffffffffffffffffffffffffffffff16145b5b90509392505050565b600073ffffffffffffffffffffffffffffffffffffffff168273ffffffffffffffffffffffffffffffffffffffff1603611be45760006040517f64a0ae92000000000000000000000000000000000000000000000000000000008152600401611bdb9190611ec1565b60405180910390fd5b6000611bf283836000610eea565b9050600073ffffffffffffffffffffffffffffffffffffffff168173ffffffffffffffffffffffffffffffffffffffff1614611c665760006040517f73c6ac6e000000000000000000000000000000000000000000000000000000008152600401611c5d9190611ec1565b60405180910390fd5b505050565b6040518060a00160405280600081526020016060815260200160008152602001600081526020016000151581525090565b6000604051905090565b600080fd5b600080fd5b60007fffffffff0000000000000000000000000000000000000000000000000000000082169050919050565b611ce581611cb0565b8114611cf057600080fd5b50565b600081359050611d0281611cdc565b92915050565b600060208284031215611d1e57611d1d611ca6565b5b6000611d2c84828501611cf3565b91505092915050565b60008115159050919050565b611d4a81611d35565b82525050565b6000602082019050611d656000830184611d41565b92915050565b600081519050919050565b600082825260208201905092915050565b60005b83811015611da5578082015181840152602081019050611d8a565b60008484015250505050565b6000601f19601f8301169050919050565b6000611dcd82611d6b565b611dd78185611d76565b9350611de7818560208601611d87565b611df081611db1565b840191505092915050565b60006020820190508181036000830152611e158184611dc2565b905092915050565b6000819050919050565b611e3081611e1d565b8114611e3b57600080fd5b50565b600081359050611e4d81611e27565b92915050565b600060208284031215611e6957611e68611ca6565b5b6000611e7784828501611e3e565b91505092915050565b600073ffffffffffffffffffffffffffffffffffffffff82169050919050565b6000611eab82611e80565b9050919050565b611ebb81611ea0565b82525050565b6000602082019050611ed66000830184611eb2565b92915050565b611ee581611ea0565b8114611ef057600080fd5b50565b600081359050611f0281611edc565b92915050565b60008060408385031215611f1f57611f1e611ca6565b5b6000611f2d85828601611ef3565b9250506020611f3e85828601611e3e565b9150509250929050565b600080600060608486031215611f6157611f60611ca6565b5b6000611f6f86828701611ef3565b9350506020611f8086828701611ef3565b9250506040611f9186828701611e3e565b9150509250925092565b611fa481611e1d565b82525050565b600082825260208201905092915050565b6000611fc682611d6b565b611fd08185611faa565b9350611fe0818560208601611d87565b611fe981611db1565b840191505092915050565b611ffd81611d35565b82525050565b600060a08301600083015161201b6000860182611f9b565b50602083015184820360208601526120338282611fbb565b91505060408301516120486040860182611f9b565b50606083015161205b6060860182611f9b565b50608083015161206e6080860182611ff4565b508091505092915050565b600060208201905081810360008301526120938184612003565b905092915050565b6120a481611e1d565b82525050565b600060a0820190506120bf600083018861209b565b81810360208301526120d18187611dc2565b90506120e0604083018661209b565b6120ed606083018561209b565b6120fa6080830184611d41565b9695505050505050565b600080fd5b600080fd5b7f4e487b7100000000000000000000000000000000000000000000000000000000600052604160045260246000fd5b61214682611db1565b810181811067ffffffffffffffff821117156121655761216461210e565b5b80604052505050565b6000612178611c9c565b9050612184828261213d565b919050565b600067ffffffffffffffff8211156121a4576121a361210e565b5b6121ad82611db1565b9050602081019050919050565b82818337600083830152505050565b60006121dc6121d784612189565b61216e565b9050828152602081018484840111156121f8576121f7612109565b5b6122038482856121ba565b509392505050565b600082601f8301126122205761221f612104565b5b81356122308482602086016121c9565b91505092915050565b600080600080600060a0868803121561225557612254611ca6565b5b600061226388828901611ef3565b955050602061227488828901611e3e565b945050604086013567ffffffffffffffff81111561229557612294611cab565b5b6122a18882890161220b565b93505060606122b288828901611e3e565b92505060806122c388828901611e3e565b9150509295509295909350565b60006020820190506122e5600083018461209b565b92915050565b60006020828403121561230157612300611ca6565b5b600061230f84828501611ef3565b91505092915050565b61232181611d35565b811461232c57600080fd5b50565b60008135905061233e81612318565b92915050565b6000806040838503121561235b5761235a611ca6565b5b600061236985828601611ef3565b925050602061237a8582860161232f565b9150509250929050565b600067ffffffffffffffff82111561239f5761239e61210e565b5b6123a882611db1565b9050602081019050919050565b60006123c86123c384612384565b61216e565b9050828152602081018484840111156123e4576123e3612109565b5b6123ef8482856121ba565b509392505050565b600082601f83011261240c5761240b612104565b5b813561241c8482602086016123b5565b91505092915050565b6000806000806080858703121561243f5761243e611ca6565b5b600061244d87828801611ef3565b945050602061245e87828801611ef3565b935050604061246f87828801611e3e565b925050606085013567ffffffffffffffff8111156124905761248f611cab565b5b61249c878288016123f7565b91505092959194509250565b600080604083850312156124bf576124be611ca6565b5b60006124cd85828601611ef3565b92505060206124de85828601611ef3565b9150509250929050565b7f4e487b7100000000000000000000000000000000000000000000000000000000600052602260045260246000fd5b6000600282049050600182168061252f57607f821691505b602082108103612542576125416124e8565b5b50919050565b600060608201905061255d6000830186611eb2565b61256a602083018561209b565b6125776040830184611eb2565b949350505050565b7f5469636b657420616c7265616479207573656400000000000000000000000000600082015250565b60006125b5601383611d76565b91506125c08261257f565b602082019050919050565b600060208201905081810360008301526125e4816125a8565b9050919050565b7f4e487b7100000000000000000000000000000000000000000000000000000000600052601160045260246000fd5b600061262582611e1d565b91507fffffffffffffffffffffffffffffffffffffffffffffffffffffffffffffffff8203612657576126566125eb565b5b600182019050919050565b60008190508160005260206000209050919050565b60006020601f8301049050919050565b600082821b905092915050565b6000600883026126c47fffffffffffffffffffffffffffffffffffffffffffffffffffffffffffffffff82612687565b6126ce8683612687565b95508019841693508086168417925050509392505050565b6000819050919050565b600061270b61270661270184611e1d565b6126e6565b611e1d565b9050919050565b6000819050919050565b612725836126f0565b61273961273182612712565b848454612694565b825550505050565b600090565b61274e612741565b61275981848461271c565b505050565b5b8181101561277d57612772600082612746565b60018101905061275f565b5050565b601f8211156127c25761279381612662565b61279c84612677565b810160208510156127ab578190505b6127bf6127b785612677565b83018261275e565b50505b505050565b600082821c905092915050565b60006127e5600019846008026127c7565b1980831691505092915050565b60006127fe83836127d4565b9150826002028217905092915050565b61281782611d6b565b67ffffffffffffffff8111156128305761282f61210e565b5b61283a8254612517565b612845828285612781565b600060209050601f8311600181146128785760008415612866578287015190505b61287085826127f2565b8655506128d8565b601f19841661288686612662565b60005b828110156128ae57848901518255600182019150602085019450602081019050612889565b868310156128cb57848901516128c7601f8916826127d4565b8355505b6001600288020188555050505b505050505050565b60006080820190506128f5600083018761209b565b612902602083018661209b565b81810360408301526129148185611dc2565b9050612923606083018461209b565b95945050505050565b600081905092915050565b600061294282611d6b565b61294c818561292c565b935061295c818560208601611d87565b80840191505092915050565b60006129748285612937565b91506129808284612937565b91508190509392505050565b600081519050919050565b600082825260208201905092915050565b60006129b38261298c565b6129bd8185612997565b93506129cd818560208601611d87565b6129d681611db1565b840191505092915050565b60006080820190506129f66000830187611eb2565b612a036020830186611eb2565b612a10604083018561209b565b8181036060830152612a2281846129a8565b905095945050505050565b600081519050612a3c81611cdc565b92915050565b600060208284031215612a5857612a57611ca6565b5b6000612a6684828501612a2d565b91505092915050565b7f4e487b7100000000000000000000000000000000000000000000000000000000600052601260045260246000fd5b6000604082019050612ab36000830185611eb2565b612ac0602083018461209b565b939250505056fea264697066735822122017d7d400a33e9ae43f1d9186699a99af0c409a25ee7568fd3c3896bb076d360864736f6c634300081c0033",
  "linkReferences": {},
  "deployedLinkReferences": {}
}