{
  "_format": "hh-sol-artifact-1",
  "contractName": "TicketContract",
  "sourceName": "contracts/TicketContract.sol",
  "abi": [
    {
      "inputs": [],
      "stateMutability": "nonpayable",
      "type": "constructor"
    },
    {
      "inputs": [
        {
          "internalType": "address",
          "name": "sender",
          "type": "address"
        },
        {
          "internalType": "uint256",
          "name": "tokenId",
          "type": "uint256"
        },
        {
          "internalType": "address",
          "name": "owner",
          "type": "address"
        }
      ],
      "name": "ERC721IncorrectOwner",
      "type": "error"
    },
    {
      "inputs": [
        {
          "internalType": "address",
          "name": "operator",
          "type": "address"
        },
        {
          "internalType": "uint256",
          "name": "tokenId",
          "type": "uint256"
        }
      ],
      "name": "ERC721InsufficientApproval",
      "type": "error"
    },
    {
      "inputs": [
        {
          "internalType": "address",
          "name": "approver",
          "type": "address"
        }
      ],
      "name": "ERC721InvalidApprover",
      "type": "error"
    },
    {
      "inputs": [
        {
          "internalType": "address",
          "name": "operator",
          "type": "address"
        }
      ],
      "name": "ERC721InvalidOperator",
      "type": "error"
    },
    {
      "inputs": [
        {
          "internalType": "address",
          "name": "owner",
          "type": "address"
        }
      ],
      "name": "ERC721InvalidOwner",
      "type": "error"
    },
    {
      "inputs": [
        {
          "internalType": "address",
          "name": "receiver",
          "type": "address"
        }
      ],
      "name": "ERC721InvalidReceiver",
      "type": "error"
    },
    {
      "inputs": [
        {
          "internalType": "address",
          "name": "sender",
          "type": "address"
        }
      ],
      "name": "ERC721InvalidSender",
      "type": "error"
    },
    {
      "inputs": [
        {
          "internalType": "uint256",
          "name": "tokenId",
          "type": "uint256"
        }
      ],
      "name": "ERC721NonexistentToken",
      "type": "error"
    },
    {
      "inputs": [
        {
          "internalType": "address",
          "name": "owner",
          "type": "address"
        }
      ],
      "name": "OwnableInvalidOwner",
      "type": "error"
    },
    {
      "inputs": [
        {
          "internalType": "address",
          "name": "account",
          "type": "address"
        }
      ],
      "name": "OwnableUnauthorizedAccount",
      "type": "error"
    },
    {
      "anonymous": false,
      "inputs": [
        {
          "indexed": true,
          "internalType": "address",
          "name": "owner",
          "type": "address"
        },
        {
          "indexed": true,
          "internalType": "address",
          "name": "approved",
          "type": "address"
        },
        {
          "indexed": true,
          "internalType": "uint256",
          "name": "tokenId",
          "type": "uint256"
        }
      ],
      "name": "Approval",
      "type": "event"
    },
    {
      "anonymous": false,
      "inputs": [
        {
          "indexed": true,
          "internalType": "address",
          "name": "owner",
          "type": "address"
        },
        {
          "indexed": true,
          "internalType": "address",
          "name": "operator",
          "type": "address"
        },
        {
          "indexed": false,
          "internalType": "bool",
          "name": "approved",
          "type": "bool"
        }
      ],
      "name": "ApprovalForAll",
      "type": "event"
    },
    {
      "anonymous": false,
      "inputs": [
        {
          "indexed": true,
          "internalType": "address",
          "name": "previousOwner",
          "type": "address"
        },
        {
          "indexed": true,
          "internalType": "address",
          "name": "newOwner",
          "type": "address"
        }
      ],
      "name": "OwnershipTransferred",
      "type": "event"
    },
    {
      "anonymous": false,
      "inputs": [
        {
          "indexed": false,
          "internalType": "uint256",
          "name": "tokenId",
          "type": "uint256"
        },
        {
          "indexed": false,
          "internalType": "uint256",
          "name": "eventId",
          "type": "uint256"
        },
        {
          "indexed": false,
          "internalType": "string",
          "name": "zone",
          "type": "string"
        },
        {
          "indexed": false,
          "internalType": "uint256",
          "name": "seatNumber",
          "type": "uint256"
        },
        {
          "indexed": false,
          "internalType": "uint256",
          "name": "eventDate",
          "type": "uint256"
        }
      ],
      "name": "TicketMinted",
      "type": "event"
    },
    {
      "anonymous": false,
      "inputs": [
        {
          "indexed": true,
          "internalType": "address",
          "name": "from",
          "type": "address"
        },
        {
          "indexed": true,
          "internalType": "address",
          "name": "to",
          "type": "address"
        },
        {
          "indexed": true,
          "internalType": "uint256",
          "name": "tokenId",
          "type": "uint256"
        }
      ],
      "name": "Transfer",
      "type": "event"
    },
    {
      "inputs": [
        {
          "internalType": "address",
          "name": "to",
          "type": "address"
        },
        {
          "internalType": "uint256",
          "name": "tokenId",
          "type": "uint256"
        }
      ],
      "name": "approve",
      "outputs": [],
      "stateMutability": "nonpayable",
      "type": "function"
    },
    {
      "inputs": [
        {
          "internalType": "address",
          "name": "owner",
          "type": "address"
        }
      ],
      "name": "balanceOf",
      "outputs": [
        {
          "internalType": "uint256",
          "name": "",
          "type": "uint256"
        }
      ],
      "stateMutability": "view",
      "type": "function"
    },
    {
      "inputs": [
        {
          "internalType": "uint256",
          "name": "tokenId",
          "type": "uint256"
        }
      ],
      "name": "getApproved",
      "outputs": [
        {
          "internalType": "address",
          "name": "",
          "type": "address"
        }
      ],
      "stateMutability": "view",
      "type": "function"
    },
    {
      "inputs": [
        {
          "internalType": "uint256",
          "name": "tokenId",
          "type": "uint256"
        }
      ],
      "name": "getTicketDetails",
      "outputs": [
        {
          "components": [
            {
              "internalType": "uint256",
              "name": "eventId",
              "type": "uint256"
            },
            {
              "internalType": "string",
              "name": "zone",
              "type": "string"
            },
            {
              "internalType": "uint256",
              "name": "seatNumber",
              "type": "uint256"
            },
            {
              "internalType": "uint256",
              "name": "price",
              "type": "uint256"
            },
            {
              "internalType": "bool",
              "name": "isUsed",
              "type": "bool"
            },
            {
              "internalType": "uint256",
              "name": "eventDate",
              "type": "uint256"
            }
          ],
          "internalType": "struct TicketContract.Ticket",
          "name": "",
          "type": "tuple"
        }
      ],
      "stateMutability": "view",
      "type": "function"
    },
    {
      "inputs": [
        {
          "internalType": "address",
          "name": "owner",
          "type": "address"
        },
        {
          "internalType": "address",
          "name": "operator",
          "type": "address"
        }
      ],
      "name": "isApprovedForAll",
      "outputs": [
        {
          "internalType": "bool",
          "name": "",
          "type": "bool"
        }
      ],
      "stateMutability": "view",
      "type": "function"
    },
    {
      "inputs": [
        {
          "internalType": "address",
          "name": "to",
          "type": "address"
        },
        {
          "internalType": "uint256",
          "name": "eventId",
          "type": "uint256"
        },
        {
          "internalType": "string",
          "name": "zone",
          "type": "string"
        },
        {
          "internalType": "uint256",
          "name": "seatNumber",
          "type": "uint256"
        },
        {
          "internalType": "uint256",
          "name": "price",
          "type": "uint256"
        },
        {
          "internalType": "uint256",
          "name": "eventDate",
          "type": "uint256"
        }
      ],
      "name": "mintTicket",
      "outputs": [
        {
          "internalType": "uint256",
          "name": "",
          "type": "uint256"
        }
      ],
      "stateMutability": "nonpayable",
      "type": "function"
    },
    {
      "inputs": [],
      "name": "name",
      "outputs": [
        {
          "internalType": "string",
          "name": "",
          "type": "string"
        }
      ],
      "stateMutability": "view",
      "type": "function"
    },
    {
      "inputs": [],
      "name": "owner",
      "outputs": [
        {
          "internalType": "address",
          "name": "",
          "type": "address"
        }
      ],
      "stateMutability": "view",
      "type": "function"
    },
    {
      "inputs": [
        {
          "internalType": "uint256",
          "name": "tokenId",
          "type": "uint256"
        }
      ],
      "name": "ownerOf",
      "outputs": [
        {
          "internalType": "address",
          "name": "",
          "type": "address"
        }
      ],
      "stateMutability": "view",
      "type": "function"
    },
    {
      "inputs": [],
      "name": "renounceOwnership",
      "outputs": [],
      "stateMutability": "nonpayable",
      "type": "function"
    },
    {
      "inputs": [
        {
          "internalType": "address",
          "name": "from",
          "type": "address"
        },
        {
          "internalType": "address",
          "name": "to",
          "type": "address"
        },
        {
          "internalType": "uint256",
          "name": "tokenId",
          "type": "uint256"
        }
      ],
      "name": "safeTransferFrom",
      "outputs": [],
      "stateMutability": "nonpayable",
      "type": "function"
    },
    {
      "inputs": [
        {
          "internalType": "address",
          "name": "from",
          "type": "address"
        },
        {
          "internalType": "address",
          "name": "to",
          "type": "address"
        },
        {
          "internalType": "uint256",
          "name": "tokenId",
          "type": "uint256"
        },
        {
          "internalType": "bytes",
          "name": "data",
          "type": "bytes"
        }
      ],
      "name": "safeTransferFrom",
      "outputs": [],
      "stateMutability": "nonpayable",
      "type": "function"
    },
    {
      "inputs": [
        {
          "internalType": "address",
          "name": "operator",
          "type": "address"
        },
        {
          "internalType": "bool",
          "name": "approved",
          "type": "bool"
        }
      ],
      "name": "setApprovalForAll",
      "outputs": [],
      "stateMutability": "nonpayable",
      "type": "function"
    },
    {
      "inputs": [
        {
          "internalType": "bytes4",
          "name": "interfaceId",
          "type": "bytes4"
        }
      ],
      "name": "supportsInterface",
      "outputs": [
        {
          "internalType": "bool",
          "name": "",
          "type": "bool"
        }
      ],
      "stateMutability": "view",
      "type": "function"
    },
    {
      "inputs": [],
      "name": "symbol",
      "outputs": [
        {
          "internalType": "string",
          "name": "",
          "type": "string"
        }
      ],
      "stateMutability": "view",
      "type": "function"
    },
    {
      "inputs": [
        {
          "internalType": "uint256",
          "name": "",
          "type": "uint256"
        }
      ],
      "name": "tickets",
      "outputs": [
        {
          "internalType": "uint256",
          "name": "eventId",
          "type": "uint256"
        },
        {
          "internalType": "string",
          "name": "zone",
          "type": "string"
        },
        {
          "internalType": "uint256",
          "name": "seatNumber",
          "type": "uint256"
        },
        {
          "internalType": "uint256",
          "name": "price",
          "type": "uint256"
        },
        {
          "internalType": "bool",
          "name": "isUsed",
          "type": "bool"
        },
        {
          "internalType": "uint256",
          "name": "eventDate",
          "type": "uint256"
        }
      ],
      "stateMutability": "view",
      "type": "function"
    },
    {
      "inputs": [
        {
          "internalType": "uint256",
          "name": "eventId",
          "type": "uint256"
        },
        {
          "internalType": "string",
          "name": "zone",
          "type": "string"
        }
      ],
      "name": "ticketsMintedCount",
      "outputs": [
        {
          "internalType": "uint256",
          "name": "",
          "type": "uint256"
        }
      ],
      "stateMutability": "view",
      "type": "function"
    },
    {
      "inputs": [
        {
          "internalType": "uint256",
          "name": "tokenId",
          "type": "uint256"
        }
      ],
      "name": "tokenURI",
      "outputs": [
        {
          "internalType": "string",
          "name": "",
          "type": "string"
        }
      ],
      "stateMutability": "view",
      "type": "function"
    },
    {
      "inputs": [
        {
          "internalType": "address",
          "name": "from",
          "type": "address"
        },
        {
          "internalType": "address",
          "name": "to",
          "type": "address"
        },
        {
          "internalType": "uint256",
          "name": "tokenId",
          "type": "uint256"
        }
      ],
      "name": "transferFrom",
      "outputs": [],
      "stateMutability": "nonpayable",
      "type": "function"
    },
    {
      "inputs": [
        {
          "internalType": "address",
          "name": "newOwner",
          "type": "address"
        }
      ],
      "name": "transferOwnership",
      "outputs": [],
      "stateMutability": "nonpayable",
      "type": "function"
    },
    {
      "inputs": [
        {
          "internalType": "uint256",
          "name": "tokenId",
          "type": "uint256"
        }
      ],
      "name": "useTicket",
      "outputs": [],
      "stateMutability": "nonpayable",
      "type": "function"
    }
  ],
  "bytecode": "0x60806040523480156200001157600080fd5b50336040518060400160405280600b81526020017f4576656e745469636b65740000000000000000000000000000000000000000008152506040518060400160405280600481526020017f54434b5400000000000000000000000000000000000000000000000000000000815250816000908162000090919062000472565b508060019081620000a2919062000472565b505050600073ffffffffffffffffffffffffffffffffffffffff168173ffffffffffffffffffffffffffffffffffffffff16036200011a5760006040517f1e4fbdf70000000000000000000000000000000000000000000000000000000081526004016200011191906200059e565b60405180910390fd5b6200012b816200013260201b60201c565b50620005bb565b6000600660009054906101000a900473ffffffffffffffffffffffffffffffffffffffff16905081600660006101000a81548173ffffffffffffffffffffffffffffffffffffffff021916908373ffffffffffffffffffffffffffffffffffffffff1602179055508173ffffffffffffffffffffffffffffffffffffffff168173ffffffffffffffffffffffffffffffffffffffff167f8be0079c531659141344cd1fd0a4f28419497f9722a3daafe3b4186f6b6457e060405160405180910390a35050565b600081519050919050565b7f4e487b7100000000000000000000000000000000000000000000000000000000600052604160045260246000fd5b7f4e487b7100000000000000000000000000000000000000000000000000000000600052602260045260246000fd5b600060028204905060018216806200027a57607f821691505b60208210810362000290576200028f62000232565b5b50919050565b60008190508160005260206000209050919050565b60006020601f8301049050919050565b600082821b905092915050565b600060088302620002fa7fffffffffffffffffffffffffffffffffffffffffffffffffffffffffffffffff82620002bb565b620003068683620002bb565b95508019841693508086168417925050509392505050565b6000819050919050565b6000819050919050565b6000620003536200034d62000347846200031e565b62000328565b6200031e565b9050919050565b6000819050919050565b6200036f8362000332565b620003876200037e826200035a565b848454620002c8565b825550505050565b600090565b6200039e6200038f565b620003ab81848462000364565b505050565b5b81811015620003d357620003c760008262000394565b600181019050620003b1565b5050565b601f8211156200042257620003ec8162000296565b620003f784620002ab565b8101602085101562000407578190505b6200041f6200041685620002ab565b830182620003b0565b50505b505050565b600082821c905092915050565b6000620004476000198460080262000427565b1980831691505092915050565b600062000462838362000434565b9150826002028217905092915050565b6200047d82620001f8565b67ffffffffffffffff81111562000499576200049862000203565b5b620004a5825462000261565b620004b2828285620003d7565b600060209050601f831160018114620004ea5760008415620004d5578287015190505b620004e1858262000454565b86555062000551565b601f198416620004fa8662000296565b60005b828110156200052457848901518255600182019150602085019450602081019050620004fd565b8683101562000544578489015162000540601f89168262000434565b8355505b6001600288020188555050505b505050505050565b600073ffffffffffffffffffffffffffffffffffffffff82169050919050565b6000620005868262000559565b9050919050565b620005988162000579565b82525050565b6000602082019050620005b560008301846200058d565b92915050565b612d5580620005cb6000396000f3fe608060405234801561001057600080fd5b50600436106101375760003560e01c806370a08231116100b8578063a22cb4651161007c578063a22cb46514610365578063a898d7d614610381578063b88d4fde146103b1578063c87b56dd146103cd578063e985e9c5146103fd578063f2fde38b1461042d57610137565b806370a08231146102bf578063715018a6146102ef578063897c545d146102f95780638da5cb5b1461032957806395d89b411461034757610137565b806324c14160116100ff57806324c14160146101f2578063266064481461022257806342842e0e1461023e57806350b447121461025a5780636352211e1461028f57610137565b806301ffc9a71461013c57806306fdde031461016c578063081812fc1461018a578063095ea7b3146101ba57806323b872dd146101d6575b600080fd5b61015660048036038101906101519190611e09565b610449565b6040516101639190611e51565b60405180910390f35b61017461052b565b6040516101819190611efc565b60405180910390f35b6101a4600480360381019061019f9190611f54565b6105bd565b6040516101b19190611fc2565b60405180910390f35b6101d460048036038101906101cf9190612009565b6105d9565b005b6101f060048036038101906101eb9190612049565b6105ef565b005b61020c60048036038101906102079190611f54565b6106f1565b604051610219919061218d565b60405180910390f35b61023c60048036038101906102379190611f54565b6107f3565b005b61025860048036038101906102539190612049565b610891565b005b610274600480360381019061026f9190611f54565b6108b1565b604051610286969594939291906121be565b60405180910390f35b6102a960048036038101906102a49190611f54565b610982565b6040516102b69190611fc2565b60405180910390f35b6102d960048036038101906102d49190612226565b610994565b6040516102e69190612253565b60405180910390f35b6102f7610a4e565b005b610313600480360381019061030e91906123a3565b610a62565b6040516103209190612253565b60405180910390f35b610331610afd565b60405161033e9190611fc2565b60405180910390f35b61034f610b27565b60405161035c9190611efc565b60405180910390f35b61037f600480360381019061037a919061242b565b610bb9565b005b61039b6004803603810190610396919061246b565b610bcf565b6040516103a89190612253565b60405180910390f35b6103cb60048036038101906103c691906125b5565b610cf3565b005b6103e760048036038101906103e29190611f54565b610d18565b6040516103f49190611efc565b60405180910390f35b61041760048036038101906104129190612638565b610d81565b6040516104249190611e51565b60405180910390f35b61044760048036038101906104429190612226565b610e15565b005b60007f80ac58cd000000000000000000000000000000000000000000000000000000007bffffffffffffffffffffffffffffffffffffffffffffffffffffffff1916827bffffffffffffffffffffffffffffffffffffffffffffffffffffffff1916148061051457507f5b5e139f000000000000000000000000000000000000000000000000000000007bffffffffffffffffffffffffffffffffffffffffffffffffffffffff1916827bffffffffffffffffffffffffffffffffffffffffffffffffffffffff1916145b80610524575061052382610e9b565b5b9050919050565b60606000805461053a906126a7565b80601f0160208091040260200160405190810160405280929190818152602001828054610566906126a7565b80156105b35780601f10610588576101008083540402835291602001916105b3565b820191906000526020600020905b81548152906001019060200180831161059657829003601f168201915b5050505050905090565b60006105c882610f05565b506105d282610f8d565b9050919050565b6105eb82826105e6610fca565b610fd2565b5050565b600073ffffffffffffffffffffffffffffffffffffffff168273ffffffffffffffffffffffffffffffffffffffff16036106615760006040517f64a0ae920000000000000000000000000000000000000000000000000000000081526004016106589190611fc2565b60405180910390fd5b60006106758383610670610fca565b610fe4565b90508373ffffffffffffffffffffffffffffffffffffffff168173ffffffffffffffffffffffffffffffffffffffff16146106eb578382826040517f64283d7b0000000000000000000000000000000000000000000000000000000081526004016106e2939291906126d8565b60405180910390fd5b50505050565b6106f9611d65565b600760008381526020019081526020016000206040518060c001604052908160008201548152602001600182018054610731906126a7565b80601f016020809104026020016040519081016040528092919081815260200182805461075d906126a7565b80156107aa5780601f1061077f576101008083540402835291602001916107aa565b820191906000526020600020905b81548152906001019060200180831161078d57829003601f168201915b5050505050815260200160028201548152602001600382015481526020016004820160009054906101000a900460ff161515151581526020016005820154815250509050919050565b6107fb6111fe565b6007600082815260200190815260200160002060040160009054906101000a900460ff161561085f576040517f08c379a00000000000000000000000000000000000000000000000000000000081526004016108569061275b565b60405180910390fd5b60016007600083815260200190815260200160002060040160006101000a81548160ff02191690831515021790555050565b6108ac83838360405180602001604052806000815250610cf3565b505050565b60076020528060005260406000206000915090508060000154908060010180546108da906126a7565b80601f0160208091040260200160405190810160405280929190818152602001828054610906906126a7565b80156109535780601f1061092857610100808354040283529160200191610953565b820191906000526020600020905b81548152906001019060200180831161093657829003601f168201915b5050505050908060020154908060030154908060040160009054906101000a900460ff16908060050154905086565b600061098d82610f05565b9050919050565b60008073ffffffffffffffffffffffffffffffffffffffff168273ffffffffffffffffffffffffffffffffffffffff1603610a075760006040517f89c62b640000000000000000000000000000000000000000000000000000000081526004016109fe9190611fc2565b60405180910390fd5b600360008373ffffffffffffffffffffffffffffffffffffffff1673ffffffffffffffffffffffffffffffffffffffff168152602001908152602001600020549050919050565b610a566111fe565b610a606000611285565b565b6000806000905060005b600854811015610af257846007600083815260200190815260200160002060000154148015610acb5750838051906020012060076000838152602001908152602001600020600101604051610ac1919061281e565b6040518091039020145b15610adf578180610adb90612864565b9250505b8080610aea90612864565b915050610a6c565b508091505092915050565b6000600660009054906101000a900473ffffffffffffffffffffffffffffffffffffffff16905090565b606060018054610b36906126a7565b80601f0160208091040260200160405190810160405280929190818152602001828054610b62906126a7565b8015610baf5780601f10610b8457610100808354040283529160200191610baf565b820191906000526020600020905b815481529060010190602001808311610b9257829003601f168201915b5050505050905090565b610bcb610bc4610fca565b838361134b565b5050565b6000610bd96111fe565b6000600854905060086000815480929190610bf390612864565b91905055506040518060c001604052808881526020018781526020018681526020018581526020016000151581526020018481525060076000838152602001908152602001600020600082015181600001556020820151816001019081610c5a9190612a58565b50604082015181600201556060820151816003015560808201518160040160006101000a81548160ff02191690831515021790555060a08201518160050155905050610ca688826114ba565b7f508281d2a6c718430412f65e2603053cd71588237b0fc9e111481c5324bcc4ce8188888887604051610cdd959493929190612b2a565b60405180910390a1809150509695505050505050565b610cfe8484846105ef565b610d12610d09610fca565b858585856114d8565b50505050565b6060610d2382610f05565b506000610d2e611689565b90506000815111610d4e5760405180602001604052806000815250610d79565b80610d58846116a0565b604051602001610d69929190612bc0565b6040516020818303038152906040525b915050919050565b6000600560008473ffffffffffffffffffffffffffffffffffffffff1673ffffffffffffffffffffffffffffffffffffffff16815260200190815260200160002060008373ffffffffffffffffffffffffffffffffffffffff1673ffffffffffffffffffffffffffffffffffffffff16815260200190815260200160002060009054906101000a900460ff16905092915050565b610e1d6111fe565b600073ffffffffffffffffffffffffffffffffffffffff168173ffffffffffffffffffffffffffffffffffffffff1603610e8f5760006040517f1e4fbdf7000000000000000000000000000000000000000000000000000000008152600401610e869190611fc2565b60405180910390fd5b610e9881611285565b50565b60007f01ffc9a7000000000000000000000000000000000000000000000000000000007bffffffffffffffffffffffffffffffffffffffffffffffffffffffff1916827bffffffffffffffffffffffffffffffffffffffffffffffffffffffff1916149050919050565b600080610f118361176e565b9050600073ffffffffffffffffffffffffffffffffffffffff168173ffffffffffffffffffffffffffffffffffffffff1603610f8457826040517f7e273289000000000000000000000000000000000000000000000000000000008152600401610f7b9190612253565b60405180910390fd5b80915050919050565b60006004600083815260200190815260200160002060009054906101000a900473ffffffffffffffffffffffffffffffffffffffff169050919050565b600033905090565b610fdf83838360016117ab565b505050565b600080610ff08461176e565b9050600073ffffffffffffffffffffffffffffffffffffffff168373ffffffffffffffffffffffffffffffffffffffff161461103257611031818486611970565b5b600073ffffffffffffffffffffffffffffffffffffffff168173ffffffffffffffffffffffffffffffffffffffff16146110c3576110746000856000806117ab565b6001600360008373ffffffffffffffffffffffffffffffffffffffff1673ffffffffffffffffffffffffffffffffffffffff168152602001908152602001600020600082825403925050819055505b600073ffffffffffffffffffffffffffffffffffffffff168573ffffffffffffffffffffffffffffffffffffffff1614611146576001600360008773ffffffffffffffffffffffffffffffffffffffff1673ffffffffffffffffffffffffffffffffffffffff168152602001908152602001600020600082825401925050819055505b846002600086815260200190815260200160002060006101000a81548173ffffffffffffffffffffffffffffffffffffffff021916908373ffffffffffffffffffffffffffffffffffffffff160217905550838573ffffffffffffffffffffffffffffffffffffffff168273ffffffffffffffffffffffffffffffffffffffff167fddf252ad1be2c89b69c2b068fc378daa952ba7f163c4a11628f55a4df523b3ef60405160405180910390a4809150509392505050565b611206610fca565b73ffffffffffffffffffffffffffffffffffffffff16611224610afd565b73ffffffffffffffffffffffffffffffffffffffff161461128357611247610fca565b6040517f118cdaa700000000000000000000000000000000000000000000000000000000815260040161127a9190611fc2565b60405180910390fd5b565b6000600660009054906101000a900473ffffffffffffffffffffffffffffffffffffffff16905081600660006101000a81548173ffffffffffffffffffffffffffffffffffffffff021916908373ffffffffffffffffffffffffffffffffffffffff1602179055508173ffffffffffffffffffffffffffffffffffffffff168173ffffffffffffffffffffffffffffffffffffffff167f8be0079c531659141344cd1fd0a4f28419497f9722a3daafe3b4186f6b6457e060405160405180910390a35050565b600073ffffffffffffffffffffffffffffffffffffffff168273ffffffffffffffffffffffffffffffffffffffff16036113bc57816040517f5b08ba180000000000000000000000000000000000000000000000000000000081526004016113b39190611fc2565b60405180910390fd5b80600560008573ffffffffffffffffffffffffffffffffffffffff1673ffffffffffffffffffffffffffffffffffffffff16815260200190815260200160002060008473ffffffffffffffffffffffffffffffffffffffff1673ffffffffffffffffffffffffffffffffffffffff16815260200190815260200160002060006101000a81548160ff0219169083151502179055508173ffffffffffffffffffffffffffffffffffffffff168373ffffffffffffffffffffffffffffffffffffffff167f17307eab39ab6107e8899845ad3d59bd9653f200f220920489ca2b5937696c31836040516114ad9190611e51565b60405180910390a3505050565b6114d4828260405180602001604052806000815250611a34565b5050565b60008373ffffffffffffffffffffffffffffffffffffffff163b1115611682578273ffffffffffffffffffffffffffffffffffffffff1663150b7a02868685856040518563ffffffff1660e01b81526004016115379493929190612c39565b6020604051808303816000875af192505050801561157357506040513d601f19601f820116820180604052508101906115709190612c9a565b60015b6115f7573d80600081146115a3576040519150601f19603f3d011682016040523d82523d6000602084013e6115a8565b606091505b5060008151036115ef57836040517f64a0ae920000000000000000000000000000000000000000000000000000000081526004016115e69190611fc2565b60405180910390fd5b805181602001fd5b63150b7a0260e01b7bffffffffffffffffffffffffffffffffffffffffffffffffffffffff1916817bffffffffffffffffffffffffffffffffffffffffffffffffffffffff19161461168057836040517f64a0ae920000000000000000000000000000000000000000000000000000000081526004016116779190611fc2565b60405180910390fd5b505b5050505050565b606060405180602001604052806000815250905090565b6060600060016116af84611a58565b01905060008167ffffffffffffffff8111156116ce576116cd612278565b5b6040519080825280601f01601f1916602001820160405280156117005781602001600182028036833780820191505090505b509050600082602001820190505b600115611763578080600190039150507f3031323334353637383961626364656600000000000000000000000000000000600a86061a8153600a858161175757611756612cc7565b5b0494506000850361170e575b819350505050919050565b60006002600083815260200190815260200160002060009054906101000a900473ffffffffffffffffffffffffffffffffffffffff169050919050565b80806117e45750600073ffffffffffffffffffffffffffffffffffffffff168273ffffffffffffffffffffffffffffffffffffffff1614155b156119185760006117f484610f05565b9050600073ffffffffffffffffffffffffffffffffffffffff168373ffffffffffffffffffffffffffffffffffffffff161415801561185f57508273ffffffffffffffffffffffffffffffffffffffff168173ffffffffffffffffffffffffffffffffffffffff1614155b801561187257506118708184610d81565b155b156118b457826040517fa9fbf51f0000000000000000000000000000000000000000000000000000000081526004016118ab9190611fc2565b60405180910390fd5b811561191657838573ffffffffffffffffffffffffffffffffffffffff168273ffffffffffffffffffffffffffffffffffffffff167f8c5be1e5ebec7d5bd14f71427d1e84f3dd0314c0f7b2291e5b200ac8c7c3b92560405160405180910390a45b505b836004600085815260200190815260200160002060006101000a81548173ffffffffffffffffffffffffffffffffffffffff021916908373ffffffffffffffffffffffffffffffffffffffff16021790555050505050565b61197b838383611bab565b611a2f57600073ffffffffffffffffffffffffffffffffffffffff168373ffffffffffffffffffffffffffffffffffffffff16036119f057806040517f7e2732890000000000000000000000000000000000000000000000000000000081526004016119e79190612253565b60405180910390fd5b81816040517f177e802f000000000000000000000000000000000000000000000000000000008152600401611a26929190612cf6565b60405180910390fd5b505050565b611a3e8383611c6c565b611a53611a49610fca565b60008585856114d8565b505050565b600080600090507a184f03e93ff9f4daa797ed6e38ed64bf6a1f0100000000000000008310611ab6577a184f03e93ff9f4daa797ed6e38ed64bf6a1f0100000000000000008381611aac57611aab612cc7565b5b0492506040810190505b6d04ee2d6d415b85acef81000000008310611af3576d04ee2d6d415b85acef81000000008381611ae957611ae8612cc7565b5b0492506020810190505b662386f26fc100008310611b2257662386f26fc100008381611b1857611b17612cc7565b5b0492506010810190505b6305f5e1008310611b4b576305f5e1008381611b4157611b40612cc7565b5b0492506008810190505b6127108310611b70576127108381611b6657611b65612cc7565b5b0492506004810190505b60648310611b935760648381611b8957611b88612cc7565b5b0492506002810190505b600a8310611ba2576001810190505b80915050919050565b60008073ffffffffffffffffffffffffffffffffffffffff168373ffffffffffffffffffffffffffffffffffffffff1614158015611c6357508273ffffffffffffffffffffffffffffffffffffffff168473ffffffffffffffffffffffffffffffffffffffff161480611c245750611c238484610d81565b5b80611c6257508273ffffffffffffffffffffffffffffffffffffffff16611c4a83610f8d565b73ffffffffffffffffffffffffffffffffffffffff16145b5b90509392505050565b600073ffffffffffffffffffffffffffffffffffffffff168273ffffffffffffffffffffffffffffffffffffffff1603611cde5760006040517f64a0ae92000000000000000000000000000000000000000000000000000000008152600401611cd59190611fc2565b60405180910390fd5b6000611cec83836000610fe4565b9050600073ffffffffffffffffffffffffffffffffffffffff168173ffffffffffffffffffffffffffffffffffffffff1614611d605760006040517f73c6ac6e000000000000000000000000000000000000000000000000000000008152600401611d579190611fc2565b60405180910390fd5b505050565b6040518060c0016040528060008152602001606081526020016000815260200160008152602001600015158152602001600081525090565b6000604051905090565b600080fd5b600080fd5b60007fffffffff0000000000000000000000000000000000000000000000000000000082169050919050565b611de681611db1565b8114611df157600080fd5b50565b600081359050611e0381611ddd565b92915050565b600060208284031215611e1f57611e1e611da7565b5b6000611e2d84828501611df4565b91505092915050565b60008115159050919050565b611e4b81611e36565b82525050565b6000602082019050611e666000830184611e42565b92915050565b600081519050919050565b600082825260208201905092915050565b60005b83811015611ea6578082015181840152602081019050611e8b565b60008484015250505050565b6000601f19601f8301169050919050565b6000611ece82611e6c565b611ed88185611e77565b9350611ee8818560208601611e88565b611ef181611eb2565b840191505092915050565b60006020820190508181036000830152611f168184611ec3565b905092915050565b6000819050919050565b611f3181611f1e565b8114611f3c57600080fd5b50565b600081359050611f4e81611f28565b92915050565b600060208284031215611f6a57611f69611da7565b5b6000611f7884828501611f3f565b91505092915050565b600073ffffffffffffffffffffffffffffffffffffffff82169050919050565b6000611fac82611f81565b9050919050565b611fbc81611fa1565b82525050565b6000602082019050611fd76000830184611fb3565b92915050565b611fe681611fa1565b8114611ff157600080fd5b50565b60008135905061200381611fdd565b92915050565b600080604083850312156120205761201f611da7565b5b600061202e85828601611ff4565b925050602061203f85828601611f3f565b9150509250929050565b60008060006060848603121561206257612061611da7565b5b600061207086828701611ff4565b935050602061208186828701611ff4565b925050604061209286828701611f3f565b9150509250925092565b6120a581611f1e565b82525050565b600082825260208201905092915050565b60006120c782611e6c565b6120d181856120ab565b93506120e1818560208601611e88565b6120ea81611eb2565b840191505092915050565b6120fe81611e36565b82525050565b600060c08301600083015161211c600086018261209c565b506020830151848203602086015261213482826120bc565b9150506040830151612149604086018261209c565b50606083015161215c606086018261209c565b50608083015161216f60808601826120f5565b5060a083015161218260a086018261209c565b508091505092915050565b600060208201905081810360008301526121a78184612104565b905092915050565b6121b881611f1e565b82525050565b600060c0820190506121d360008301896121af565b81810360208301526121e58188611ec3565b90506121f460408301876121af565b61220160608301866121af565b61220e6080830185611e42565b61221b60a08301846121af565b979650505050505050565b60006020828403121561223c5761223b611da7565b5b600061224a84828501611ff4565b91505092915050565b600060208201905061226860008301846121af565b92915050565b600080fd5b600080fd5b7f4e487b7100000000000000000000000000000000000000000000000000000000600052604160045260246000fd5b6122b082611eb2565b810181811067ffffffffffffffff821117156122cf576122ce612278565b5b80604052505050565b60006122e2611d9d565b90506122ee82826122a7565b919050565b600067ffffffffffffffff82111561230e5761230d612278565b5b61231782611eb2565b9050602081019050919050565b82818337600083830152505050565b6000612346612341846122f3565b6122d8565b90508281526020810184848401111561236257612361612273565b5b61236d848285612324565b509392505050565b600082601f83011261238a5761238961226e565b5b813561239a848260208601612333565b91505092915050565b600080604083850312156123ba576123b9611da7565b5b60006123c885828601611f3f565b925050602083013567ffffffffffffffff8111156123e9576123e8611dac565b5b6123f585828601612375565b9150509250929050565b61240881611e36565b811461241357600080fd5b50565b600081359050612425816123ff565b92915050565b6000806040838503121561244257612441611da7565b5b600061245085828601611ff4565b925050602061246185828601612416565b9150509250929050565b60008060008060008060c0878903121561248857612487611da7565b5b600061249689828a01611ff4565b96505060206124a789828a01611f3f565b955050604087013567ffffffffffffffff8111156124c8576124c7611dac565b5b6124d489828a01612375565b94505060606124e589828a01611f3f565b93505060806124f689828a01611f3f565b92505060a061250789828a01611f3f565b9150509295509295509295565b600067ffffffffffffffff82111561252f5761252e612278565b5b61253882611eb2565b9050602081019050919050565b600061255861255384612514565b6122d8565b90508281526020810184848401111561257457612573612273565b5b61257f848285612324565b509392505050565b600082601f83011261259c5761259b61226e565b5b81356125ac848260208601612545565b91505092915050565b600080600080608085870312156125cf576125ce611da7565b5b60006125dd87828801611ff4565b94505060206125ee87828801611ff4565b93505060406125ff87828801611f3f565b925050606085013567ffffffffffffffff8111156126205761261f611dac565b5b61262c87828801612587565b91505092959194509250565b6000806040838503121561264f5761264e611da7565b5b600061265d85828601611ff4565b925050602061266e85828601611ff4565b9150509250929050565b7f4e487b7100000000000000000000000000000000000000000000000000000000600052602260045260246000fd5b600060028204905060018216806126bf57607f821691505b6020821081036126d2576126d1612678565b5b50919050565b60006060820190506126ed6000830186611fb3565b6126fa60208301856121af565b6127076040830184611fb3565b949350505050565b7f5469636b657420616c7265616479207573656400000000000000000000000000600082015250565b6000612745601383611e77565b91506127508261270f565b602082019050919050565b6000602082019050818103600083015261277481612738565b9050919050565b600081905092915050565b60008190508160005260206000209050919050565b600081546127a8816126a7565b6127b2818661277b565b945060018216600081146127cd57600181146127e257612815565b60ff1983168652811515820286019350612815565b6127eb85612786565b60005b8381101561280d578154818901526001820191506020810190506127ee565b838801955050505b50505092915050565b600061282a828461279b565b915081905092915050565b7f4e487b7100000000000000000000000000000000000000000000000000000000600052601160045260246000fd5b600061286f82611f1e565b91507fffffffffffffffffffffffffffffffffffffffffffffffffffffffffffffffff82036128a1576128a0612835565b5b600182019050919050565b60008190508160005260206000209050919050565b60006020601f8301049050919050565b600082821b905092915050565b60006008830261290e7fffffffffffffffffffffffffffffffffffffffffffffffffffffffffffffffff826128d1565b61291886836128d1565b95508019841693508086168417925050509392505050565b6000819050919050565b600061295561295061294b84611f1e565b612930565b611f1e565b9050919050565b6000819050919050565b61296f8361293a565b61298361297b8261295c565b8484546128de565b825550505050565b600090565b61299861298b565b6129a3818484612966565b505050565b5b818110156129c7576129bc600082612990565b6001810190506129a9565b5050565b601f821115612a0c576129dd816128ac565b6129e6846128c1565b810160208510156129f5578190505b612a09612a01856128c1565b8301826129a8565b50505b505050565b600082821c905092915050565b6000612a2f60001984600802612a11565b1980831691505092915050565b6000612a488383612a1e565b9150826002028217905092915050565b612a6182611e6c565b67ffffffffffffffff811115612a7a57612a79612278565b5b612a8482546126a7565b612a8f8282856129cb565b600060209050601f831160018114612ac25760008415612ab0578287015190505b612aba8582612a3c565b865550612b22565b601f198416612ad0866128ac565b60005b82811015612af857848901518255600182019150602085019450602081019050612ad3565b86831015612b155784890151612b11601f891682612a1e565b8355505b6001600288020188555050505b505050505050565b600060a082019050612b3f60008301886121af565b612b4c60208301876121af565b8181036040830152612b5e8186611ec3565b9050612b6d60608301856121af565b612b7a60808301846121af565b9695505050505050565b600081905092915050565b6000612b9a82611e6c565b612ba48185612b84565b9350612bb4818560208601611e88565b80840191505092915050565b6000612bcc8285612b8f565b9150612bd88284612b8f565b91508190509392505050565b600081519050919050565b600082825260208201905092915050565b6000612c0b82612be4565b612c158185612bef565b9350612c25818560208601611e88565b612c2e81611eb2565b840191505092915050565b6000608082019050612c4e6000830187611fb3565b612c5b6020830186611fb3565b612c6860408301856121af565b8181036060830152612c7a8184612c00565b905095945050505050565b600081519050612c9481611ddd565b92915050565b600060208284031215612cb057612caf611da7565b5b6000612cbe84828501612c85565b91505092915050565b7f4e487b7100000000000000000000000000000000000000000000000000000000600052601260045260246000fd5b6000604082019050612d0b6000830185611fb3565b612d1860208301846121af565b939250505056fea2646970667358221220f67df6f8275ba3a2eefed1b842b4230aba4aaa22af2576c7c659c5702b43dea964736f6c63430008140033",
  "linkReferences": {},
  "deployedLinkReferences": {}
}